{
  "_format": "hh-sol-artifact-1",
  "contractName": "Collection",
  "sourceName": "contracts/Collection.sol",
  "abi": [
    {
      "inputs": [],
      "stateMutability": "nonpayable",
      "type": "constructor"
    },
    {
      "anonymous": false,
      "inputs": [
        {
          "indexed": true,
          "internalType": "address",
          "name": "owner",
          "type": "address"
        },
        {
          "indexed": true,
          "internalType": "address",
          "name": "approved",
          "type": "address"
        },
        {
          "indexed": true,
          "internalType": "uint256",
          "name": "tokenId",
          "type": "uint256"
        }
      ],
      "name": "Approval",
      "type": "event"
    },
    {
      "anonymous": false,
      "inputs": [
        {
          "indexed": true,
          "internalType": "address",
          "name": "owner",
          "type": "address"
        },
        {
          "indexed": true,
          "internalType": "address",
          "name": "operator",
          "type": "address"
        },
        {
          "indexed": false,
          "internalType": "bool",
          "name": "approved",
          "type": "bool"
        }
      ],
      "name": "ApprovalForAll",
      "type": "event"
    },
    {
      "anonymous": false,
      "inputs": [
        {
          "indexed": true,
          "internalType": "address",
          "name": "previousOwner",
          "type": "address"
        },
        {
          "indexed": true,
          "internalType": "address",
          "name": "newOwner",
          "type": "address"
        }
      ],
      "name": "OwnershipTransferred",
      "type": "event"
    },
    {
      "anonymous": false,
      "inputs": [
        {
          "indexed": true,
          "internalType": "address",
          "name": "from",
          "type": "address"
        },
        {
          "indexed": true,
          "internalType": "address",
          "name": "to",
          "type": "address"
        },
        {
          "indexed": true,
          "internalType": "uint256",
          "name": "tokenId",
          "type": "uint256"
        }
      ],
      "name": "Transfer",
      "type": "event"
    },
    {
      "inputs": [
        {
          "internalType": "address",
          "name": "to",
          "type": "address"
        },
        {
          "internalType": "uint256",
          "name": "tokenId",
          "type": "uint256"
        }
      ],
      "name": "approve",
      "outputs": [],
      "stateMutability": "nonpayable",
      "type": "function"
    },
    {
      "inputs": [
        {
          "internalType": "address",
          "name": "owner",
          "type": "address"
        }
      ],
      "name": "balanceOf",
      "outputs": [
        {
          "internalType": "uint256",
          "name": "",
          "type": "uint256"
        }
      ],
      "stateMutability": "view",
      "type": "function"
    },
    {
      "inputs": [
        {
          "internalType": "uint256",
          "name": "tokenId",
          "type": "uint256"
        }
      ],
      "name": "getApproved",
      "outputs": [
        {
          "internalType": "address",
          "name": "",
          "type": "address"
        }
      ],
      "stateMutability": "view",
      "type": "function"
    },
    {
      "inputs": [
        {
          "internalType": "address",
          "name": "owner",
          "type": "address"
        },
        {
          "internalType": "address",
          "name": "operator",
          "type": "address"
        }
      ],
      "name": "isApprovedForAll",
      "outputs": [
        {
          "internalType": "bool",
          "name": "",
          "type": "bool"
        }
      ],
      "stateMutability": "view",
      "type": "function"
    },
    {
      "inputs": [
        {
          "internalType": "string",
          "name": "uri",
          "type": "string"
        }
      ],
      "name": "mint",
      "outputs": [],
      "stateMutability": "nonpayable",
      "type": "function"
    },
    {
      "inputs": [],
      "name": "name",
      "outputs": [
        {
          "internalType": "string",
          "name": "",
          "type": "string"
        }
      ],
      "stateMutability": "view",
      "type": "function"
    },
    {
      "inputs": [],
      "name": "owner",
      "outputs": [
        {
          "internalType": "address",
          "name": "",
          "type": "address"
        }
      ],
      "stateMutability": "view",
      "type": "function"
    },
    {
      "inputs": [
        {
          "internalType": "uint256",
          "name": "tokenId",
          "type": "uint256"
        }
      ],
      "name": "ownerOf",
      "outputs": [
        {
          "internalType": "address",
          "name": "",
          "type": "address"
        }
      ],
      "stateMutability": "view",
      "type": "function"
    },
    {
      "inputs": [],
      "name": "renounceOwnership",
      "outputs": [],
      "stateMutability": "nonpayable",
      "type": "function"
    },
    {
      "inputs": [
        {
          "internalType": "address",
          "name": "from",
          "type": "address"
        },
        {
          "internalType": "address",
          "name": "to",
          "type": "address"
        },
        {
          "internalType": "uint256",
          "name": "tokenId",
          "type": "uint256"
        }
      ],
      "name": "safeTransferFrom",
      "outputs": [],
      "stateMutability": "nonpayable",
      "type": "function"
    },
    {
      "inputs": [
        {
          "internalType": "address",
          "name": "from",
          "type": "address"
        },
        {
          "internalType": "address",
          "name": "to",
          "type": "address"
        },
        {
          "internalType": "uint256",
          "name": "tokenId",
          "type": "uint256"
        },
        {
          "internalType": "bytes",
          "name": "data",
          "type": "bytes"
        }
      ],
      "name": "safeTransferFrom",
      "outputs": [],
      "stateMutability": "nonpayable",
      "type": "function"
    },
    {
      "inputs": [
        {
          "internalType": "address",
          "name": "operator",
          "type": "address"
        },
        {
          "internalType": "bool",
          "name": "approved",
          "type": "bool"
        }
      ],
      "name": "setApprovalForAll",
      "outputs": [],
      "stateMutability": "nonpayable",
      "type": "function"
    },
    {
      "inputs": [
        {
          "internalType": "bytes4",
          "name": "interfaceId",
          "type": "bytes4"
        }
      ],
      "name": "supportsInterface",
      "outputs": [
        {
          "internalType": "bool",
          "name": "",
          "type": "bool"
        }
      ],
      "stateMutability": "view",
      "type": "function"
    },
    {
      "inputs": [],
      "name": "symbol",
      "outputs": [
        {
          "internalType": "string",
          "name": "",
          "type": "string"
        }
      ],
      "stateMutability": "view",
      "type": "function"
    },
    {
      "inputs": [
        {
          "internalType": "uint256",
          "name": "tokenId",
          "type": "uint256"
        }
      ],
      "name": "tokenURI",
      "outputs": [
        {
          "internalType": "string",
          "name": "",
          "type": "string"
        }
      ],
      "stateMutability": "view",
      "type": "function"
    },
    {
      "inputs": [
        {
          "internalType": "address",
          "name": "from",
          "type": "address"
        },
        {
          "internalType": "address",
          "name": "to",
          "type": "address"
        },
        {
          "internalType": "uint256",
          "name": "tokenId",
          "type": "uint256"
        }
      ],
      "name": "transferFrom",
      "outputs": [],
      "stateMutability": "nonpayable",
      "type": "function"
    },
    {
      "inputs": [
        {
          "internalType": "address",
          "name": "newOwner",
          "type": "address"
        }
      ],
      "name": "transferOwnership",
      "outputs": [],
      "stateMutability": "nonpayable",
      "type": "function"
    }
  ],
  "bytecode": "0x608060405260006008553480156200001657600080fd5b506040518060400160405280600d81526020017f4d7920436f6c6c656374696f6e000000000000000000000000000000000000008152506040518060400160405280600381526020017f4d5943000000000000000000000000000000000000000000000000000000000081525081600090805190602001906200009b929190620001ab565b508060019080519060200190620000b4929190620001ab565b505050620000d7620000cb620000dd60201b60201c565b620000e560201b60201c565b620002c0565b600033905090565b6000600760009054906101000a900473ffffffffffffffffffffffffffffffffffffffff16905081600760006101000a81548173ffffffffffffffffffffffffffffffffffffffff021916908373ffffffffffffffffffffffffffffffffffffffff1602179055508173ffffffffffffffffffffffffffffffffffffffff168173ffffffffffffffffffffffffffffffffffffffff167f8be0079c531659141344cd1fd0a4f28419497f9722a3daafe3b4186f6b6457e060405160405180910390a35050565b828054620001b9906200025b565b90600052602060002090601f016020900481019282620001dd576000855562000229565b82601f10620001f857805160ff191683800117855562000229565b8280016001018555821562000229579182015b82811115620002285782518255916020019190600101906200020b565b5b5090506200023891906200023c565b5090565b5b80821115620002575760008160009055506001016200023d565b5090565b600060028204905060018216806200027457607f821691505b602082108114156200028b576200028a62000291565b5b50919050565b7f4e487b7100000000000000000000000000000000000000000000000000000000600052602260045260246000fd5b612ce580620002d06000396000f3fe608060405234801561001057600080fd5b506004361061010b5760003560e01c8063715018a6116100a2578063b88d4fde11610071578063b88d4fde146102a4578063c87b56dd146102c0578063d85d3d27146102f0578063e985e9c51461030c578063f2fde38b1461033c5761010b565b8063715018a6146102425780638da5cb5b1461024c57806395d89b411461026a578063a22cb465146102885761010b565b806323b872dd116100de57806323b872dd146101aa57806342842e0e146101c65780636352211e146101e257806370a08231146102125761010b565b806301ffc9a71461011057806306fdde0314610140578063081812fc1461015e578063095ea7b31461018e575b600080fd5b61012a60048036038101906101259190611fdc565b610358565b60405161013791906123dd565b60405180910390f35b61014861043a565b60405161015591906123f8565b60405180910390f35b6101786004803603810190610173919061206f565b6104cc565b6040516101859190612376565b60405180910390f35b6101a860048036038101906101a39190611fa0565b610512565b005b6101c460048036038101906101bf9190611e9a565b61062a565b005b6101e060048036038101906101db9190611e9a565b61068a565b005b6101fc60048036038101906101f7919061206f565b6106aa565b6040516102099190612376565b60405180910390f35b61022c60048036038101906102279190611e35565b610731565b60405161023991906125da565b60405180910390f35b61024a6107e9565b005b6102546107fd565b6040516102619190612376565b60405180910390f35b610272610827565b60405161027f91906123f8565b60405180910390f35b6102a2600480360381019061029d9190611f64565b6108b9565b005b6102be60048036038101906102b99190611ee9565b6108cf565b005b6102da60048036038101906102d5919061206f565b610931565b6040516102e791906123f8565b60405180910390f35b61030a6004803603810190610305919061202e565b610a44565b005b61032660048036038101906103219190611e5e565b610a7f565b60405161033391906123dd565b60405180910390f35b61035660048036038101906103519190611e35565b610b13565b005b60007f80ac58cd000000000000000000000000000000000000000000000000000000007bffffffffffffffffffffffffffffffffffffffffffffffffffffffff1916827bffffffffffffffffffffffffffffffffffffffffffffffffffffffff1916148061042357507f5b5e139f000000000000000000000000000000000000000000000000000000007bffffffffffffffffffffffffffffffffffffffffffffffffffffffff1916827bffffffffffffffffffffffffffffffffffffffffffffffffffffffff1916145b80610433575061043282610b97565b5b9050919050565b60606000805461044990612775565b80601f016020809104026020016040519081016040528092919081815260200182805461047590612775565b80156104c25780601f10610497576101008083540402835291602001916104c2565b820191906000526020600020905b8154815290600101906020018083116104a557829003601f168201915b5050505050905090565b60006104d782610c01565b6004600083815260200190815260200160002060009054906101000a900473ffffffffffffffffffffffffffffffffffffffff169050919050565b600061051d826106aa565b90508073ffffffffffffffffffffffffffffffffffffffff168373ffffffffffffffffffffffffffffffffffffffff16141561058e576040517f08c379a00000000000000000000000000000000000000000000000000000000081526004016105859061259a565b60405180910390fd5b8073ffffffffffffffffffffffffffffffffffffffff166105ad610c4c565b73ffffffffffffffffffffffffffffffffffffffff1614806105dc57506105db816105d6610c4c565b610a7f565b5b61061b576040517f08c379a0000000000000000000000000000000000000000000000000000000008152600401610612906125ba565b60405180910390fd5b6106258383610c54565b505050565b61063b610635610c4c565b82610d0d565b61067a576040517f08c379a00000000000000000000000000000000000000000000000000000000081526004016106719061241a565b60405180910390fd5b610685838383610da2565b505050565b6106a5838383604051806020016040528060008152506108cf565b505050565b6000806106b68361109c565b9050600073ffffffffffffffffffffffffffffffffffffffff168173ffffffffffffffffffffffffffffffffffffffff161415610728576040517f08c379a000000000000000000000000000000000000000000000000000000000815260040161071f9061257a565b60405180910390fd5b80915050919050565b60008073ffffffffffffffffffffffffffffffffffffffff168273ffffffffffffffffffffffffffffffffffffffff1614156107a2576040517f08c379a0000000000000000000000000000000000000000000000000000000008152600401610799906124fa565b60405180910390fd5b600360008373ffffffffffffffffffffffffffffffffffffffff1673ffffffffffffffffffffffffffffffffffffffff168152602001908152602001600020549050919050565b6107f16110d9565b6107fb6000611157565b565b6000600760009054906101000a900473ffffffffffffffffffffffffffffffffffffffff16905090565b60606001805461083690612775565b80601f016020809104026020016040519081016040528092919081815260200182805461086290612775565b80156108af5780601f10610884576101008083540402835291602001916108af565b820191906000526020600020905b81548152906001019060200180831161089257829003601f168201915b5050505050905090565b6108cb6108c4610c4c565b838361121d565b5050565b6108e06108da610c4c565b83610d0d565b61091f576040517f08c379a00000000000000000000000000000000000000000000000000000000081526004016109169061241a565b60405180910390fd5b61092b8484848461138a565b50505050565b606061093c82610c01565b600060066000848152602001908152602001600020805461095c90612775565b80601f016020809104026020016040519081016040528092919081815260200182805461098890612775565b80156109d55780601f106109aa576101008083540402835291602001916109d5565b820191906000526020600020905b8154815290600101906020018083116109b857829003601f168201915b5050505050905060006109e66113e6565b90506000815114156109fc578192505050610a3f565b600082511115610a31578082604051602001610a19929190612352565b60405160208183030381529060405292505050610a3f565b610a3a846113fd565b925050505b919050565b610a4c6110d9565b610a5833600854611465565b610a6460085482611683565b60086000815480929190610a77906127d8565b919050555050565b6000600560008473ffffffffffffffffffffffffffffffffffffffff1673ffffffffffffffffffffffffffffffffffffffff16815260200190815260200160002060008373ffffffffffffffffffffffffffffffffffffffff1673ffffffffffffffffffffffffffffffffffffffff16815260200190815260200160002060009054906101000a900460ff16905092915050565b610b1b6110d9565b600073ffffffffffffffffffffffffffffffffffffffff168173ffffffffffffffffffffffffffffffffffffffff161415610b8b576040517f08c379a0000000000000000000000000000000000000000000000000000000008152600401610b829061245a565b60405180910390fd5b610b9481611157565b50565b60007f01ffc9a7000000000000000000000000000000000000000000000000000000007bffffffffffffffffffffffffffffffffffffffffffffffffffffffff1916827bffffffffffffffffffffffffffffffffffffffffffffffffffffffff1916149050919050565b610c0a816116f7565b610c49576040517f08c379a0000000000000000000000000000000000000000000000000000000008152600401610c409061257a565b60405180910390fd5b50565b600033905090565b816004600083815260200190815260200160002060006101000a81548173ffffffffffffffffffffffffffffffffffffffff021916908373ffffffffffffffffffffffffffffffffffffffff160217905550808273ffffffffffffffffffffffffffffffffffffffff16610cc7836106aa565b73ffffffffffffffffffffffffffffffffffffffff167f8c5be1e5ebec7d5bd14f71427d1e84f3dd0314c0f7b2291e5b200ac8c7c3b92560405160405180910390a45050565b600080610d19836106aa565b90508073ffffffffffffffffffffffffffffffffffffffff168473ffffffffffffffffffffffffffffffffffffffff161480610d5b5750610d5a8185610a7f565b5b80610d9957508373ffffffffffffffffffffffffffffffffffffffff16610d81846104cc565b73ffffffffffffffffffffffffffffffffffffffff16145b91505092915050565b8273ffffffffffffffffffffffffffffffffffffffff16610dc2826106aa565b73ffffffffffffffffffffffffffffffffffffffff1614610e18576040517f08c379a0000000000000000000000000000000000000000000000000000000008152600401610e0f9061247a565b60405180910390fd5b600073ffffffffffffffffffffffffffffffffffffffff168273ffffffffffffffffffffffffffffffffffffffff161415610e88576040517f08c379a0000000000000000000000000000000000000000000000000000000008152600401610e7f906124ba565b60405180910390fd5b610e958383836001611738565b8273ffffffffffffffffffffffffffffffffffffffff16610eb5826106aa565b73ffffffffffffffffffffffffffffffffffffffff1614610f0b576040517f08c379a0000000000000000000000000000000000000000000000000000000008152600401610f029061247a565b60405180910390fd5b6004600082815260200190815260200160002060006101000a81549073ffffffffffffffffffffffffffffffffffffffff02191690556001600360008573ffffffffffffffffffffffffffffffffffffffff1673ffffffffffffffffffffffffffffffffffffffff168152602001908152602001600020600082825403925050819055506001600360008473ffffffffffffffffffffffffffffffffffffffff1673ffffffffffffffffffffffffffffffffffffffff16815260200190815260200160002060008282540192505081905550816002600083815260200190815260200160002060006101000a81548173ffffffffffffffffffffffffffffffffffffffff021916908373ffffffffffffffffffffffffffffffffffffffff160217905550808273ffffffffffffffffffffffffffffffffffffffff168473ffffffffffffffffffffffffffffffffffffffff167fddf252ad1be2c89b69c2b068fc378daa952ba7f163c4a11628f55a4df523b3ef60405160405180910390a4611097838383600161173e565b505050565b60006002600083815260200190815260200160002060009054906101000a900473ffffffffffffffffffffffffffffffffffffffff169050919050565b6110e1610c4c565b73ffffffffffffffffffffffffffffffffffffffff166110ff6107fd565b73ffffffffffffffffffffffffffffffffffffffff1614611155576040517f08c379a000000000000000000000000000000000000000000000000000000000815260040161114c9061255a565b60405180910390fd5b565b6000600760009054906101000a900473ffffffffffffffffffffffffffffffffffffffff16905081600760006101000a81548173ffffffffffffffffffffffffffffffffffffffff021916908373ffffffffffffffffffffffffffffffffffffffff1602179055508173ffffffffffffffffffffffffffffffffffffffff168173ffffffffffffffffffffffffffffffffffffffff167f8be0079c531659141344cd1fd0a4f28419497f9722a3daafe3b4186f6b6457e060405160405180910390a35050565b8173ffffffffffffffffffffffffffffffffffffffff168373ffffffffffffffffffffffffffffffffffffffff16141561128c576040517f08c379a0000000000000000000000000000000000000000000000000000000008152600401611283906124da565b60405180910390fd5b80600560008573ffffffffffffffffffffffffffffffffffffffff1673ffffffffffffffffffffffffffffffffffffffff16815260200190815260200160002060008473ffffffffffffffffffffffffffffffffffffffff1673ffffffffffffffffffffffffffffffffffffffff16815260200190815260200160002060006101000a81548160ff0219169083151502179055508173ffffffffffffffffffffffffffffffffffffffff168373ffffffffffffffffffffffffffffffffffffffff167f17307eab39ab6107e8899845ad3d59bd9653f200f220920489ca2b5937696c318360405161137d91906123dd565b60405180910390a3505050565b611395848484610da2565b6113a184848484611744565b6113e0576040517f08c379a00000000000000000000000000000000000000000000000000000000081526004016113d79061243a565b60405180910390fd5b50505050565b606060405180602001604052806000815250905090565b606061140882610c01565b60006114126113e6565b90506000815111611432576040518060200160405280600081525061145d565b8061143c846118db565b60405160200161144d929190612352565b6040516020818303038152906040525b915050919050565b600073ffffffffffffffffffffffffffffffffffffffff168273ffffffffffffffffffffffffffffffffffffffff1614156114d5576040517f08c379a00000000000000000000000000000000000000000000000000000000081526004016114cc9061253a565b60405180910390fd5b6114de816116f7565b1561151e576040517f08c379a00000000000000000000000000000000000000000000000000000000081526004016115159061249a565b60405180910390fd5b61152c600083836001611738565b611535816116f7565b15611575576040517f08c379a000000000000000000000000000000000000000000000000000000000815260040161156c9061249a565b60405180910390fd5b6001600360008473ffffffffffffffffffffffffffffffffffffffff1673ffffffffffffffffffffffffffffffffffffffff16815260200190815260200160002060008282540192505081905550816002600083815260200190815260200160002060006101000a81548173ffffffffffffffffffffffffffffffffffffffff021916908373ffffffffffffffffffffffffffffffffffffffff160217905550808273ffffffffffffffffffffffffffffffffffffffff16600073ffffffffffffffffffffffffffffffffffffffff167fddf252ad1be2c89b69c2b068fc378daa952ba7f163c4a11628f55a4df523b3ef60405160405180910390a461167f60008383600161173e565b5050565b61168c826116f7565b6116cb576040517f08c379a00000000000000000000000000000000000000000000000000000000081526004016116c29061251a565b60405180910390fd5b806006600084815260200190815260200160002090805190602001906116f2929190611c59565b505050565b60008073ffffffffffffffffffffffffffffffffffffffff166117198361109c565b73ffffffffffffffffffffffffffffffffffffffff1614159050919050565b50505050565b50505050565b60006117658473ffffffffffffffffffffffffffffffffffffffff166119ff565b156118ce578373ffffffffffffffffffffffffffffffffffffffff1663150b7a0261178e610c4c565b8786866040518563ffffffff1660e01b81526004016117b09493929190612391565b602060405180830381600087803b1580156117ca57600080fd5b505af19250505080156117fb57506040513d601f19601f820116820180604052508101906117f89190612005565b60015b61187e573d806000811461182b576040519150601f19603f3d011682016040523d82523d6000602084013e611830565b606091505b50600081511415611876576040517f08c379a000000000000000000000000000000000000000000000000000000000815260040161186d9061243a565b60405180910390fd5b805181602001fd5b63150b7a0260e01b7bffffffffffffffffffffffffffffffffffffffffffffffffffffffff1916817bffffffffffffffffffffffffffffffffffffffffffffffffffffffff1916149150506118d3565b600190505b949350505050565b6060600060016118ea84611a22565b01905060008167ffffffffffffffff81111561192f577f4e487b7100000000000000000000000000000000000000000000000000000000600052604160045260246000fd5b6040519080825280601f01601f1916602001820160405280156119615781602001600182028036833780820191505090505b509050600082602001820190505b6001156119f4578080600190039150507f3031323334353637383961626364656600000000000000000000000000000000600a86061a8153600a85816119de577f4e487b7100000000000000000000000000000000000000000000000000000000600052601260045260246000fd5b04945060008514156119ef576119f4565b61196f565b819350505050919050565b6000808273ffffffffffffffffffffffffffffffffffffffff163b119050919050565b600080600090507a184f03e93ff9f4daa797ed6e38ed64bf6a1f0100000000000000008310611aa6577a184f03e93ff9f4daa797ed6e38ed64bf6a1f0100000000000000008381611a9c577f4e487b7100000000000000000000000000000000000000000000000000000000600052601260045260246000fd5b0492506040810190505b6d04ee2d6d415b85acef81000000008310611b09576d04ee2d6d415b85acef81000000008381611aff577f4e487b7100000000000000000000000000000000000000000000000000000000600052601260045260246000fd5b0492506020810190505b662386f26fc100008310611b5e57662386f26fc100008381611b54577f4e487b7100000000000000000000000000000000000000000000000000000000600052601260045260246000fd5b0492506010810190505b6305f5e1008310611bad576305f5e1008381611ba3577f4e487b7100000000000000000000000000000000000000000000000000000000600052601260045260246000fd5b0492506008810190505b6127108310611bf8576127108381611bee577f4e487b7100000000000000000000000000000000000000000000000000000000600052601260045260246000fd5b0492506004810190505b60648310611c415760648381611c37577f4e487b7100000000000000000000000000000000000000000000000000000000600052601260045260246000fd5b0492506002810190505b600a8310611c50576001810190505b80915050919050565b828054611c6590612775565b90600052602060002090601f016020900481019282611c875760008555611cce565b82601f10611ca057805160ff1916838001178555611cce565b82800160010185558215611cce579182015b82811115611ccd578251825591602001919060010190611cb2565b5b509050611cdb9190611cdf565b5090565b5b80821115611cf8576000816000905550600101611ce0565b5090565b6000611d0f611d0a8461261a565b6125f5565b905082815260208101848484011115611d2757600080fd5b611d32848285612733565b509392505050565b6000611d4d611d488461264b565b6125f5565b905082815260208101848484011115611d6557600080fd5b611d70848285612733565b509392505050565b600081359050611d8781612c53565b92915050565b600081359050611d9c81612c6a565b92915050565b600081359050611db181612c81565b92915050565b600081519050611dc681612c81565b92915050565b600082601f830112611ddd57600080fd5b8135611ded848260208601611cfc565b91505092915050565b600082601f830112611e0757600080fd5b8135611e17848260208601611d3a565b91505092915050565b600081359050611e2f81612c98565b92915050565b600060208284031215611e4757600080fd5b6000611e5584828501611d78565b91505092915050565b60008060408385031215611e7157600080fd5b6000611e7f85828601611d78565b9250506020611e9085828601611d78565b9150509250929050565b600080600060608486031215611eaf57600080fd5b6000611ebd86828701611d78565b9350506020611ece86828701611d78565b9250506040611edf86828701611e20565b9150509250925092565b60008060008060808587031215611eff57600080fd5b6000611f0d87828801611d78565b9450506020611f1e87828801611d78565b9350506040611f2f87828801611e20565b925050606085013567ffffffffffffffff811115611f4c57600080fd5b611f5887828801611dcc565b91505092959194509250565b60008060408385031215611f7757600080fd5b6000611f8585828601611d78565b9250506020611f9685828601611d8d565b9150509250929050565b60008060408385031215611fb357600080fd5b6000611fc185828601611d78565b9250506020611fd285828601611e20565b9150509250929050565b600060208284031215611fee57600080fd5b6000611ffc84828501611da2565b91505092915050565b60006020828403121561201757600080fd5b600061202584828501611db7565b91505092915050565b60006020828403121561204057600080fd5b600082013567ffffffffffffffff81111561205a57600080fd5b61206684828501611df6565b91505092915050565b60006020828403121561208157600080fd5b600061208f84828501611e20565b91505092915050565b6120a1816126bf565b82525050565b6120b0816126d1565b82525050565b60006120c18261267c565b6120cb8185612692565b93506120db818560208601612742565b6120e4816128ae565b840191505092915050565b60006120fa82612687565b61210481856126a3565b9350612114818560208601612742565b61211d816128ae565b840191505092915050565b600061213382612687565b61213d81856126b4565b935061214d818560208601612742565b80840191505092915050565b6000612166602d836126a3565b9150612171826128bf565b604082019050919050565b60006121896032836126a3565b91506121948261290e565b604082019050919050565b60006121ac6026836126a3565b91506121b78261295d565b604082019050919050565b60006121cf6025836126a3565b91506121da826129ac565b604082019050919050565b60006121f2601c836126a3565b91506121fd826129fb565b602082019050919050565b60006122156024836126a3565b915061222082612a24565b604082019050919050565b60006122386019836126a3565b915061224382612a73565b602082019050919050565b600061225b6029836126a3565b915061226682612a9c565b604082019050919050565b600061227e602e836126a3565b915061228982612aeb565b604082019050919050565b60006122a16020836126a3565b91506122ac82612b3a565b602082019050919050565b60006122c46020836126a3565b91506122cf82612b63565b602082019050919050565b60006122e76018836126a3565b91506122f282612b8c565b602082019050919050565b600061230a6021836126a3565b915061231582612bb5565b604082019050919050565b600061232d603d836126a3565b915061233882612c04565b604082019050919050565b61234c81612729565b82525050565b600061235e8285612128565b915061236a8284612128565b91508190509392505050565b600060208201905061238b6000830184612098565b92915050565b60006080820190506123a66000830187612098565b6123b36020830186612098565b6123c06040830185612343565b81810360608301526123d281846120b6565b905095945050505050565b60006020820190506123f260008301846120a7565b92915050565b6000602082019050818103600083015261241281846120ef565b905092915050565b6000602082019050818103600083015261243381612159565b9050919050565b600060208201905081810360008301526124538161217c565b9050919050565b600060208201905081810360008301526124738161219f565b9050919050565b60006020820190508181036000830152612493816121c2565b9050919050565b600060208201905081810360008301526124b3816121e5565b9050919050565b600060208201905081810360008301526124d381612208565b9050919050565b600060208201905081810360008301526124f38161222b565b9050919050565b600060208201905081810360008301526125138161224e565b9050919050565b6000602082019050818103600083015261253381612271565b9050919050565b6000602082019050818103600083015261255381612294565b9050919050565b60006020820190508181036000830152612573816122b7565b9050919050565b60006020820190508181036000830152612593816122da565b9050919050565b600060208201905081810360008301526125b3816122fd565b9050919050565b600060208201905081810360008301526125d381612320565b9050919050565b60006020820190506125ef6000830184612343565b92915050565b60006125ff612610565b905061260b82826127a7565b919050565b6000604051905090565b600067ffffffffffffffff8211156126355761263461287f565b5b61263e826128ae565b9050602081019050919050565b600067ffffffffffffffff8211156126665761266561287f565b5b61266f826128ae565b9050602081019050919050565b600081519050919050565b600081519050919050565b600082825260208201905092915050565b600082825260208201905092915050565b600081905092915050565b60006126ca82612709565b9050919050565b60008115159050919050565b60007fffffffff0000000000000000000000000000000000000000000000000000000082169050919050565b600073ffffffffffffffffffffffffffffffffffffffff82169050919050565b6000819050919050565b82818337600083830152505050565b60005b83811015612760578082015181840152602081019050612745565b8381111561276f576000848401525b50505050565b6000600282049050600182168061278d57607f821691505b602082108114156127a1576127a0612850565b5b50919050565b6127b0826128ae565b810181811067ffffffffffffffff821117156127cf576127ce61287f565b5b80604052505050565b60006127e382612729565b91507fffffffffffffffffffffffffffffffffffffffffffffffffffffffffffffffff82141561281657612815612821565b5b600182019050919050565b7f4e487b7100000000000000000000000000000000000000000000000000000000600052601160045260246000fd5b7f4e487b7100000000000000000000000000000000000000000000000000000000600052602260045260246000fd5b7f4e487b7100000000000000000000000000000000000000000000000000000000600052604160045260246000fd5b6000601f19601f8301169050919050565b7f4552433732313a2063616c6c6572206973206e6f7420746f6b656e206f776e6560008201527f72206f7220617070726f76656400000000000000000000000000000000000000602082015250565b7f4552433732313a207472616e7366657220746f206e6f6e20455243373231526560008201527f63656976657220696d706c656d656e7465720000000000000000000000000000602082015250565b7f4f776e61626c653a206e6577206f776e657220697320746865207a65726f206160008201527f6464726573730000000000000000000000000000000000000000000000000000602082015250565b7f4552433732313a207472616e736665722066726f6d20696e636f72726563742060008201527f6f776e6572000000000000000000000000000000000000000000000000000000602082015250565b7f4552433732313a20746f6b656e20616c7265616479206d696e74656400000000600082015250565b7f4552433732313a207472616e7366657220746f20746865207a65726f2061646460008201527f7265737300000000000000000000000000000000000000000000000000000000602082015250565b7f4552433732313a20617070726f766520746f2063616c6c657200000000000000600082015250565b7f4552433732313a2061646472657373207a65726f206973206e6f74206120766160008201527f6c6964206f776e65720000000000000000000000000000000000000000000000602082015250565b7f45524337323155524953746f726167653a2055524920736574206f66206e6f6e60008201527f6578697374656e7420746f6b656e000000000000000000000000000000000000602082015250565b7f4552433732313a206d696e7420746f20746865207a65726f2061646472657373600082015250565b7f4f776e61626c653a2063616c6c6572206973206e6f7420746865206f776e6572600082015250565b7f4552433732313a20696e76616c696420746f6b656e2049440000000000000000600082015250565b7f4552433732313a20617070726f76616c20746f2063757272656e74206f776e6560008201527f7200000000000000000000000000000000000000000000000000000000000000602082015250565b7f4552433732313a20617070726f76652063616c6c6572206973206e6f7420746f60008201527f6b656e206f776e6572206f7220617070726f76656420666f7220616c6c000000602082015250565b612c5c816126bf565b8114612c6757600080fd5b50565b612c73816126d1565b8114612c7e57600080fd5b50565b612c8a816126dd565b8114612c9557600080fd5b50565b612ca181612729565b8114612cac57600080fd5b5056fea26469706673582212204c221da400d759347a568f7b8b8c5924856793ffc360b2871692fec6a492961064736f6c63430008040033",
  "linkReferences": {},
  "deployedLinkReferences": {}
}